{
  "address": "0xfE24a173A6eaff546CcECD8900D403B761eb0535",
  "abi": [
    {
      "inputs": [
        {
          "internalType": "address",
          "name": "_priceFeedAddress",
          "type": "address"
        }
      ],
      "stateMutability": "nonpayable",
      "type": "constructor"
    },
    {
      "inputs": [],
      "name": "NotOwner",
      "type": "error"
    },
    {
      "stateMutability": "payable",
      "type": "fallback"
    },
    {
      "inputs": [
        {
          "internalType": "address",
          "name": "",
          "type": "address"
        }
      ],
      "name": "addressToAmountFunded",
      "outputs": [
        {
          "internalType": "uint256",
          "name": "",
          "type": "uint256"
        }
      ],
      "stateMutability": "view",
      "type": "function"
    },
    {
      "inputs": [],
      "name": "fund",
      "outputs": [],
      "stateMutability": "payable",
      "type": "function"
    },
    {
      "inputs": [
        {
          "internalType": "uint256",
          "name": "",
          "type": "uint256"
        }
      ],
      "name": "funders",
      "outputs": [
        {
          "internalType": "address",
          "name": "",
          "type": "address"
        }
      ],
      "stateMutability": "view",
      "type": "function"
    },
    {
      "inputs": [],
      "name": "i_owner",
      "outputs": [
        {
          "internalType": "address",
          "name": "",
          "type": "address"
        }
      ],
      "stateMutability": "view",
      "type": "function"
    },
    {
      "inputs": [],
      "name": "minUsd",
      "outputs": [
        {
          "internalType": "uint256",
          "name": "",
          "type": "uint256"
        }
      ],
      "stateMutability": "view",
      "type": "function"
    },
    {
      "inputs": [],
      "name": "priceFeed",
      "outputs": [
        {
          "internalType": "contract AggregatorV3Interface",
          "name": "",
          "type": "address"
        }
      ],
      "stateMutability": "view",
      "type": "function"
    },
    {
      "inputs": [],
      "name": "withdraw",
      "outputs": [],
      "stateMutability": "nonpayable",
      "type": "function"
    },
    {
      "stateMutability": "payable",
      "type": "receive"
    }
  ],
  "transactionHash": "0xadf7dfddc7ce9fc8c5686f19f7fd5b75120b9e4047d78e8e3b72ddab63eab6f6",
  "args": [
    "0x97d9F9A00dEE0004BE8ca0A8fa374d486567eE2D"
  ],
  "numDeployments": 1,
  "solcInputHash": "fd482169583686d17dfe5bf9010188ae",
  "bytecode": "0x60a060405234801561001057600080fd5b50604051620010873803806200108783398181016040528101906100349190610111565b3373ffffffffffffffffffffffffffffffffffffffff1660808173ffffffffffffffffffffffffffffffffffffffff1681525050806000806101000a81548173ffffffffffffffffffffffffffffffffffffffff021916908373ffffffffffffffffffffffffffffffffffffffff1602179055505061013e565b600080fd5b600073ffffffffffffffffffffffffffffffffffffffff82169050919050565b60006100de826100b3565b9050919050565b6100ee816100d3565b81146100f957600080fd5b50565b60008151905061010b816100e5565b92915050565b600060208284031215610127576101266100ae565b5b6000610135848285016100fc565b91505092915050565b608051610f2662000161600039600081816102d201526105200152610f266000f3fe6080604052600436106100745760003560e01c8063741bef1a1161004e578063741bef1a1461010c578063b60d428814610137578063dba6335f14610141578063dc0d3dff1461016c57610083565b80633ccfd60b1461008d5780633e47d6f3146100a457806351b80e41146100e157610083565b36610083576100816101a9565b005b61008b6101a9565b005b34801561009957600080fd5b506100a26102d0565b005b3480156100b057600080fd5b506100cb60048036038101906100c691906107e2565b6104d5565b6040516100d89190610828565b60405180910390f35b3480156100ed57600080fd5b506100f66104ed565b6040516101039190610828565b60405180910390f35b34801561011857600080fd5b506101216104fa565b60405161012e91906108a2565b60405180910390f35b61013f6101a9565b005b34801561014d57600080fd5b5061015661051e565b60405161016391906108cc565b60405180910390f35b34801561017857600080fd5b50610193600480360381019061018e9190610913565b610542565b6040516101a091906108cc565b60405180910390f35b6802b5e3af16b18800006101e660008054906101000a900473ffffffffffffffffffffffffffffffffffffffff163461058190919063ffffffff16565b1015610227576040517f08c379a000000000000000000000000000000000000000000000000000000000815260040161021e906109c3565b60405180910390fd5b6001339080600181540180825580915050600190039060005260206000200160009091909190916101000a81548173ffffffffffffffffffffffffffffffffffffffff021916908373ffffffffffffffffffffffffffffffffffffffff16021790555034600260003373ffffffffffffffffffffffffffffffffffffffff1673ffffffffffffffffffffffffffffffffffffffff16815260200190815260200160002081905550565b7f000000000000000000000000000000000000000000000000000000000000000073ffffffffffffffffffffffffffffffffffffffff163373ffffffffffffffffffffffffffffffffffffffff1614610355576040517f30cd747100000000000000000000000000000000000000000000000000000000815260040160405180910390fd5b60005b6001805490508110156103fb5760006001828154811061037b5761037a6109e3565b5b9060005260206000200160009054906101000a900473ffffffffffffffffffffffffffffffffffffffff1690506000600260008373ffffffffffffffffffffffffffffffffffffffff1673ffffffffffffffffffffffffffffffffffffffff16815260200190815260200160002081905550508080600101915050610358565b50600067ffffffffffffffff81111561041757610416610a12565b5b6040519080825280602002602001820160405280156104455781602001602082028036833780820191505090505b506001908051906020019061045b9291906106d8565b5060003373ffffffffffffffffffffffffffffffffffffffff164760405161048290610a72565b60006040518083038185875af1925050503d80600081146104bf576040519150601f19603f3d011682016040523d82523d6000602084013e6104c4565b606091505b50509050806104d257600080fd5b50565b60026020528060005260406000206000915090505481565b6802b5e3af16b188000081565b60008054906101000a900473ffffffffffffffffffffffffffffffffffffffff1681565b7f000000000000000000000000000000000000000000000000000000000000000081565b6001818154811061055257600080fd5b906000526020600020016000915054906101000a900473ffffffffffffffffffffffffffffffffffffffff1681565b60008061058d836105bd565b90506000670de0b6b3a764000085836105a69190610ab6565b6105b09190610b27565b9050809250505092915050565b6000808273ffffffffffffffffffffffffffffffffffffffff1663feaf968c6040518163ffffffff1660e01b815260040160a060405180830381865afa15801561060b573d6000803e3d6000fd5b505050506040513d601f19601f8201168201806040525081019061062f9190610be5565b50505091505060008373ffffffffffffffffffffffffffffffffffffffff1663313ce5676040518163ffffffff1660e01b8152600401602060405180830381865afa158015610682573d6000803e3d6000fd5b505050506040513d601f19601f820116820180604052508101906106a69190610c99565b60ff1660126106b59190610cc6565b905080600a6106c49190610e2d565b826106cf9190610e78565b92505050919050565b828054828255906000526020600020908101928215610751579160200282015b828111156107505782518260006101000a81548173ffffffffffffffffffffffffffffffffffffffff021916908373ffffffffffffffffffffffffffffffffffffffff160217905550916020019190600101906106f8565b5b50905061075e9190610762565b5090565b5b8082111561077b576000816000905550600101610763565b5090565b600080fd5b600073ffffffffffffffffffffffffffffffffffffffff82169050919050565b60006107af82610784565b9050919050565b6107bf816107a4565b81146107ca57600080fd5b50565b6000813590506107dc816107b6565b92915050565b6000602082840312156107f8576107f761077f565b5b6000610806848285016107cd565b91505092915050565b6000819050919050565b6108228161080f565b82525050565b600060208201905061083d6000830184610819565b92915050565b6000819050919050565b600061086861086361085e84610784565b610843565b610784565b9050919050565b600061087a8261084d565b9050919050565b600061088c8261086f565b9050919050565b61089c81610881565b82525050565b60006020820190506108b76000830184610893565b92915050565b6108c6816107a4565b82525050565b60006020820190506108e160008301846108bd565b92915050565b6108f08161080f565b81146108fb57600080fd5b50565b60008135905061090d816108e7565b92915050565b6000602082840312156109295761092861077f565b5b6000610937848285016108fe565b91505092915050565b600082825260208201905092915050565b7f56616c75652073686f756c642062652067726561746572207468616e20302e3060008201527f3135206574682835302429000000000000000000000000000000000000000000602082015250565b60006109ad602b83610940565b91506109b882610951565b604082019050919050565b600060208201905081810360008301526109dc816109a0565b9050919050565b7f4e487b7100000000000000000000000000000000000000000000000000000000600052603260045260246000fd5b7f4e487b7100000000000000000000000000000000000000000000000000000000600052604160045260246000fd5b600081905092915050565b50565b6000610a5c600083610a41565b9150610a6782610a4c565b600082019050919050565b6000610a7d82610a4f565b9150819050919050565b7f4e487b7100000000000000000000000000000000000000000000000000000000600052601160045260246000fd5b6000610ac18261080f565b9150610acc8361080f565b9250828202610ada8161080f565b91508282048414831517610af157610af0610a87565b5b5092915050565b7f4e487b7100000000000000000000000000000000000000000000000000000000600052601260045260246000fd5b6000610b328261080f565b9150610b3d8361080f565b925082610b4d57610b4c610af8565b5b828204905092915050565b600069ffffffffffffffffffff82169050919050565b610b7781610b58565b8114610b8257600080fd5b50565b600081519050610b9481610b6e565b92915050565b6000819050919050565b610bad81610b9a565b8114610bb857600080fd5b50565b600081519050610bca81610ba4565b92915050565b600081519050610bdf816108e7565b92915050565b600080600080600060a08688031215610c0157610c0061077f565b5b6000610c0f88828901610b85565b9550506020610c2088828901610bbb565b9450506040610c3188828901610bd0565b9350506060610c4288828901610bd0565b9250506080610c5388828901610b85565b9150509295509295909350565b600060ff82169050919050565b610c7681610c60565b8114610c8157600080fd5b50565b600081519050610c9381610c6d565b92915050565b600060208284031215610caf57610cae61077f565b5b6000610cbd84828501610c84565b91505092915050565b6000610cd18261080f565b9150610cdc8361080f565b9250828203905081811115610cf457610cf3610a87565b5b92915050565b60008160011c9050919050565b6000808291508390505b6001851115610d5157808604811115610d2d57610d2c610a87565b5b6001851615610d3c5780820291505b8081029050610d4a85610cfa565b9450610d11565b94509492505050565b600082610d6a5760019050610e26565b81610d785760009050610e26565b8160018114610d8e5760028114610d9857610dc7565b6001915050610e26565b60ff841115610daa57610da9610a87565b5b8360020a915084821115610dc157610dc0610a87565b5b50610e26565b5060208310610133831016604e8410600b8410161715610dfc5782820a905083811115610df757610df6610a87565b5b610e26565b610e098484846001610d07565b92509050818404811115610e2057610e1f610a87565b5b81810290505b9392505050565b6000610e388261080f565b9150610e438361080f565b9250610e707fffffffffffffffffffffffffffffffffffffffffffffffffffffffffffffffff8484610d5a565b905092915050565b6000610e8382610b9a565b9150610e8e83610b9a565b9250828202610e9c81610b9a565b91507f80000000000000000000000000000000000000000000000000000000000000008414600084121615610ed457610ed3610a87565b5b8282058414831517610ee957610ee8610a87565b5b509291505056fea2646970667358221220933b5b5d0610acd0ec643d3848163ed0efd4c03c4426508f8a8e89853c60ec5964736f6c63430008180033",
  "devdoc": {
    "kind": "dev",
    "methods": {},
    "version": 1
  },
  "userdoc": {
    "kind": "user",
    "methods": {},
    "version": 1
  },
  "storageLayout": {
    "storage": [
      {
        "astId": 96,
        "contract": "contracts/FundMe.sol:FundMe",
        "label": "priceFeed",
        "offset": 0,
        "slot": "0",
        "type": "t_contract(AggregatorV3Interface)45"
      },
      {
        "astId": 116,
        "contract": "contracts/FundMe.sol:FundMe",
        "label": "funders",
        "offset": 0,
        "slot": "1",
        "type": "t_array(t_address)dyn_storage"
      },
      {
        "astId": 120,
        "contract": "contracts/FundMe.sol:FundMe",
        "label": "addressToAmountFunded",
        "offset": 0,
        "slot": "2",
        "type": "t_mapping(t_address,t_uint256)"
      }
    ],
    "types": {
      "t_address": {
        "encoding": "inplace",
        "label": "address",
        "numberOfBytes": "20"
      },
      "t_array(t_address)dyn_storage": {
        "base": "t_address",
        "encoding": "dynamic_array",
        "label": "address[]",
        "numberOfBytes": "32"
      },
      "t_contract(AggregatorV3Interface)45": {
        "encoding": "inplace",
        "label": "contract AggregatorV3Interface",
        "numberOfBytes": "20"
      },
      "t_mapping(t_address,t_uint256)": {
        "encoding": "mapping",
        "key": "t_address",
        "label": "mapping(address => uint256)",
        "numberOfBytes": "32",
        "value": "t_uint256"
      },
      "t_uint256": {
        "encoding": "inplace",
        "label": "uint256",
        "numberOfBytes": "32"
      }
    }
  }
}